:100000000C949E000C94C6000C94C6000C94C60080
:100010000C94C6000C94C6000C94C6000C94C60048
:100020000C94C6000C94C6000C94C6000C94C60038
:100030000C94C6000C94C6000C94C6000C94C60028
:100040000C946E020C94C6000C94DE020C94B80260
:100050000C94C6000C94C6000C94C6000C94C60008
:100060000C94C6000C94C60007634236B79BD8A711
:100070001A39685618AEBAAB558C1D3CB7CC5763CD
:10008000BD6DEDFD753EF6177231BF000000803F7B
:1000900008000000BE922449123EABAAAA2ABECD97
:1000A000CCCC4C3E00000080BEABAAAAAA3E000009
:1000B0000000BF000000803F000000000008417801
:1000C000D3BB4387D1133D190E3CC3BD4282AD2B38
:1000D0003E68EC8276BED98FE1A93E4C80EFFFBE30
:1000E00001C4FF7F3F00000000000000000024006A
:1000F00027002A0000000000250028002B0004042F
:1001000004040404040402020202020203030303BF
:10011000030301020408102040800102040810209B
:100120000102040810200000000800020100000382
:1001300004070000000000000000E50411241FBEB9
:10014000CFEFD8E0DEBFCDBF11E0A0E0B1E0EAEF35
:10015000F1E102C005900D92AE33B107D9F721E06D
:10016000AEE3B1E001C01D92A23FB207E1F710E09B
:10017000CEE9D0E004C02197FE010E94F508CD39F8
:10018000D107C9F70E9410030C94FB080C940000DF
:10019000E3E3F1E02491EFE1F1E09491EBE0F1E0B1
:1001A000E491EE23C9F0222339F0233001F1A8F4C1
:1001B000213019F1223029F1F0E0EE0FFF1FEC5051
:1001C000FF4FA591B4912FB7F894EC91811126C0FF
:1001D00090959E239C932FBF08952730A9F0283037
:1001E000C9F0243049F7209180002F7D03C0209171
:1001F00080002F7720938000DFCF24B52F7724BD98
:10020000DBCF24B52F7DFBCF2091B0002F7720933B
:10021000B000D2CF2091B0002F7DF9CF9E2BDACF46
:10022000AF92BF92CF92DF92EF92FF920F931F9304
:10023000CF93DF936C017B018B01040F151FEB0142
:100240005E01AE18BF08C017D10759F06991D601F9
:10025000ED91FC910190F081E02DC6010995892B6B
:1002600079F7C501DF91CF911F910F91FF90EF902A
:10027000DF90CF90BF90AF900895FC01538D448DD7
:10028000252F30E0842F90E0821B930B541710F041
:10029000CF96089501970895FC01918D828D98174E
:1002A00061F0A28DAE0FBF2FB11D5D968C91928D26
:1002B0009F5F9F73928F90E008958FEF9FEF089557
:1002C000FC01918D828D981731F0828DE80FF11D20
:1002D000858D90E008958FEF9FEF0895FC01918D3B
:1002E000228D892F90E0805C9F4F821B91098F7334
:1002F0009927089585E591E00E946E0121E0892B00
:1003000009F420E0822F089580E090E0892B29F005
:100310000E947A0181110C9400000895FC01A48DC3
:10032000A80FB92FB11DA35ABF4F2C91848D90E017
:1003300001968F739927848FA689B7892C93A089FA
:10034000B1898C91837080648C93938D848D981384
:1003500006C00288F389E02D80818F7D8083089517
:10036000EF92FF920F931F93CF93DF93EC0181E005
:10037000888F9B8D8C8D98131AC0E889F9898081AC
:1003800085FF15C09FB7F894EE89FF896083E889DF
:10039000F98980818370806480839FBF81E090E0D1
:1003A000DF91CF911F910F91FF90EF900895F62E5E
:1003B0000B8D10E00F5F1F4F0F731127E02E8C8DF8
:1003C0008E110CC00FB607FCFACFE889F98980813D
:1003D00085FFF5CFCE010E948E01F1CFEB8DEC0FA2
:1003E000FD2FF11DE35AFF4FF0829FB7F8940B8F5A
:1003F000EA89FB8980818062CFCFCF93DF93EC01C4
:10040000888D8823B9F0AA89BB89E889F9898C91FC
:1004100085FD03C0808186FD0DC00FB607FCF7CFB8
:100420008C9185FFF2CF808185FFEDCFCE010E94B8
:100430008E01E9CFDF91CF910895FC01019000205A
:10044000E9F73197AF01481B590BBC0185E591E0F5
:100450000C9410018F929F92AF92BF920F931F93B3
:10046000CF93DF93CDB7DEB7A1970FB6F894DEBF79
:100470000FBECDBF19A2423008F44AE08E010F5DD5
:100480001F4F842E912CB12CA12CA50194010E9408
:10049000D308E62FB901CA01EA30F4F4E05DD801CF
:1004A000EE938D01232B242B252B79F790E080E010
:1004B000109719F0CD010E941D02A1960FB6F89475
:1004C000DEBF0FBECDBFDF91CF911F910F91BF90C7
:1004D000AF909F908F900895E95CE1CF1F920F92AB
:1004E0000FB60F9211242F933F938F939F93AF9347
:1004F000BF938091510190915201A0915301B0910D
:1005000054013091500123E0230F2D3758F5019607
:10051000A11DB11D20935001809351019093520170
:10052000A0935301B093540180914C0190914D01DF
:10053000A0914E01B0914F010196A11DB11D809374
:100540004C0190934D01A0934E01B0934F01BF9188
:10055000AF919F918F913F912F910F900FBE0F9070
:100560001F90189526E8230F0296A11DB11DD2CF2A
:100570001F920F920FB60F9211242F933F934F9318
:100580005F936F937F938F939F93AF93BF93EF93FB
:10059000FF9385E591E00E948E01FF91EF91BF915D
:1005A000AF919F918F917F916F915F914F913F910B
:1005B0002F910F900FBE0F901F9018951F920F92C2
:1005C0000FB60F9211242F938F939F93EF93FF9366
:1005D000E0916501F09166018081E0916B01F091FD
:1005E0006C0182FD1BC0908180916E018F5F8F73C3
:1005F00020916F01821741F0E0916E01F0E0EB5A1B
:10060000FE4F958F80936E01FF91EF919F918F9197
:100610002F910F900FBE0F901F9018958081F4CFEF
:10062000789484B5826084BD84B5816084BD85B5CD
:10063000826085BD85B5816085BD80916E008160D9
:1006400080936E001092810080918100826080937F
:100650008100809181008160809381008091800081
:100660008160809380008091B10084608093B100AC
:100670008091B00081608093B00080917A008460A6
:1006800080937A0080917A00826080937A008091D2
:100690007A00816080937A0080917A0080688093EC
:1006A0007A001092C100EFE1F1E02491EBE0F1E07B
:1006B0008491882399F090E0880F991FFC01E651FE
:1006C000FF4FA591B491FC01EC50FF4F859194919F
:1006D0008FB7F894EC91E22BEC938FBFE09165011A
:1006E000F091660182E08083E0916101F091620106
:1006F0001082E0916301F09164018FEC808310928D
:100700006D01E0916901F0916A0186E08083E091DA
:100710006701F0916801808180618083E0916701C9
:10072000F0916801808188608083E0916701F09199
:100730006801808180688083E0916701F0916801A1
:1007400080818F7D808310E4C0E0D0E010937C0036
:1007500080917A00806480937A0080917A0086FD8F
:10076000FCCF8091780060917900762F682F70938C
:100770004B0160934A01072E000C880B990B0E94D5
:10078000B5052FE93AEA4AEA5EE30E94D70629E76F
:1007900039EE4EE851E40E946A0660934601709378
:1007A000470180934801909349018FB7F894C09016
:1007B0005101D0905201E0905301F09054018FBF4D
:1007C000C0924201D0924301E0924401F09245016F
:1007D00080913E0190913F01A0914001B091410173
:1007E000A7019601281B390B4A0B5B0BDA01C901E3
:1007F0008A3F9105A105B10508F44AC080E00E9436
:10080000C800C0923E01D0923F01E0924001F092B8
:10081000410182E191E00E941D02C0904A01D09006
:100820004B010D2C000CEE08FF084AE0C701B60191
:10083000F7FE0DC06DE285E591E00E94B0016627EC
:100840007727CB016C197D098E099F094AE00E9428
:100850002A0280E291E00E941D02C0904601D090E1
:100860004701E0904801F0904901A7019601C701B6
:10087000B6010E9427078823B1F08EE291E00E9422
:100880001D028AE391E00E941D0281E00E94C800DF
:10089000209709F45BCF0E947A01882309F456CF90
:1008A0000E94000053CF46015701E894B7F82FEF9C
:1008B0003FEF4FE75FE7C501B4010E9427078111B1
:1008C0000DC02FEF3FEF4FE75FE7C501B4010E9476
:1008D0007F0518161CF482E391E0D1CF2FEF3FEF94
:1008E0004FE75FE4C701B6010E94650618161CF4C5
:1008F00086E391E0C4CF2FEF3FEF4FE75FECC701F6
:10090000B6010E947F0587FDF3CF20E030E0A9010A
:10091000C701B6010E947F0587FF09C06DE285E52A
:1009200091E00E94B001F7FAF094F7F8F0942AE011
:1009300037ED43EA5BE3C701B6010E9413054B01A3
:100940005C010E9484056B017C010E94B3059B0140
:10095000AC01C501B4010E9412054B015C014AE0E3
:10096000C701B6010E942A026EE285E591E00E946D
:10097000B00120E030E040E251E4C501B4010E9442
:100980006A064B015C010E9484056B01F12CE12C8D
:100990004AE0C701B6010E942A02C701B6010E94BF
:1009A000B3059B01AC01C501B4010E94120520E012
:1009B00030E040E251E40E946A060E94840590E023
:1009C00080E04AE00E942A025CCFE5E5F1E0138274
:1009D000128288EE93E0A0E0B0E084839583A68342
:1009E000B78384E091E09183808385EC90E09587E4
:1009F000848784EC90E09787868780EC90E0918BE9
:100A0000808B81EC90E0938B828B82EC90E0958BD5
:100A1000848B86EC90E0978B868B118E128E138ED2
:100A2000148E08955058BB27AA270E942A050C94BB
:100A30002B060E941D0638F00E94240620F039F48F
:100A40009F3F19F426F40C941A060EF4E095E7FB88
:100A50000C941406E92F0E943C0658F3BA1762075B
:100A600073078407950720F079F4A6F50C945E06C9
:100A70000EF4E0950B2EBA2FA02D0B01B9019001B9
:100A80000C01CA01A0011124FF27591B99F0593FFD
:100A900050F4503E68F11A16F040A22F232F342F45
:100AA0004427585FF3CF469537952795A795F04093
:100AB0005395C9F77EF41F16BA0B620B730B840BA8
:100AC000BAF09150A1F0FF0FBB1F661F771F881F60
:100AD000C2F70EC0BA0F621F731F841F48F48795B8
:100AE00077956795B795F7959E3F08F0B0CF9395AA
:100AF000880F08F09927EE0F9795879508950E9423
:100B0000F00508F481E008950E94440688F09F579C
:100B100098F0B92F9927B751B0F0E1F0660F771F21
:100B2000881F991F1AF0BA95C9F714C0B13091F017
:100B30000E945E06B1E008950C945E06672F782F40
:100B40008827B85F39F0B93FCCF3869577956795DC
:100B5000B395D9F73EF490958095709561957F4F48
:100B60008F4F9F4F0895E89409C097FB3EF49095EE
:100B70008095709561957F4F8F4F9F4F9923A9F076
:100B8000F92F96E9BB279395F69587957795679505
:100B9000B795F111F8CFFAF4BB0F11F460FF1BC049
:100BA0006F5F7F4F8F4F9F4F16C0882311F096E9DC
:100BB00011C0772321F09EE8872F762F05C066238A
:100BC00071F096E8862F70E060E02AF09A95660F43
:100BD000771F881FDAF7880F9695879597F90895FC
:100BE000990F0008550FAA0BE0E8FEEF161617063E
:100BF000E807F907C0F012161306E407F50798F0A6
:100C0000621B730B840B950B39F40A2661F0232BBE
:100C1000242B252B21F408950A2609F4A140A6953A
:100C20008FEF811D811D089597F99F6780E870E01F
:100C300060E008959FEF80EC089500240A94161652
:100C4000170618060906089500240A9412161306BA
:100C5000140605060895092E0394000C11F4882348
:100C600052F0BB0F40F4BF2B11F460FF04C06F5F64
:100C70007F4F8F4F9F4F089557FD9058440F551F3A
:100C800059F05F3F71F04795880F97FB991F61F00E
:100C90009F3F79F087950895121613061406551F85
:100CA000F2CF4695F1DF08C0161617061806991FF1
:100CB000F1CF86957105610508940895E894BB27E6
:100CC00066277727CB0197F908950E94F00508F46D
:100CD0008FEF08950E947D060C942B060E941D063E
:100CE00038F00E94240620F0952311F00C9414068D
:100CF0000C941A0611240C945F060E943C0670F3B3
:100D0000959FC1F3950F50E0551F629FF001729FB0
:100D1000BB27F00DB11D639FAA27F00DB11DAA1FBF
:100D2000649F6627B00DA11D661F829F2227B00D0C
:100D3000A11D621F739FB00DA11D621F839FA00D97
:100D4000611D221F749F3327A00D611D231F849FE7
:100D5000600D211D822F762F6A2F11249F5750403E
:100D60009AF0F1F088234AF0EE0FFF1FBB1F661FB9
:100D7000771F881F91505040A9F79E3F510580F082
:100D80000C9414060C945F065F3FE4F3983ED4F392
:100D9000869577956795B795F795E7959F5FC1F726
:100DA000FE2B880F911D9695879597F90895FA0166
:100DB000EE0FFF1F309621053105A1F16115710578
:100DC00061F48038BFE39B0749F16894903881054E
:100DD00061F08038BFEF9B0741F099234AF5FF3F50
:100DE000E1053105210519F1E8940894E795D90149
:100DF000AA2329F4AB2FBE2FF85FD0F310C0FF5FFA
:100E000070F4A695E0F7F73950F019F0FF3A38F48E
:100E10009F779F930DD00F9007FC9058089546F050
:100E20000C941A0660E070E080E89FE308954FE7B5
:100E30009F775F934F933F932F930E94D7072F91F4
:100E40003F914F915F910E946A060C9434070E9473
:100E5000F005880B990B089529F416F00C941406EC
:100E60000C945E060C941A060E944406A8F3963869
:100E7000A0F707F80F92E8942BE33AEA48EB5FE714
:100E80000E9480060F920F920F924DB75EB70F929D
:100E90000E941F08E8E6F0E00E9466074F915F910C
:100EA000EF91FF91E595EE1FFF1F49F0FE57E068B7
:100EB0004427EE0F441FFA95E1F74195550B0E9428
:100EC00099070F9007FE0C948D070895DF93CF9339
:100ED0001F930F93FF92EF92DF927B018C01689436
:100EE00006C0DA2EEF010E947D06FE01E894A5916E
:100EF0002591359145915591A6F3EF010E942A0560
:100F0000FE019701A801DA9469F7DF90EF90FF9056
:100F10000F911F91CF91DF9108959B01AC0160E08B
:100F200070E080E89FE30C9453080C9414060C9432
:100F3000C5080E944406D8F39923C9F3940F511DA4
:100F4000A3F39150504094F059F0882332F0660F8B
:100F5000771F881F91505040C1F79E3F51052CF7D5
:100F6000880F911D9695879597F908955F3FACF08E
:100F7000983E9CF0BB27869577956795B79508F4C2
:100F8000B1609395C1F7BB0F58F711F460FFE8CF3C
:100F90006F5F7F4F8F4F9F4FE3CF0C945F0616F02C
:100FA0000C94C5080C941A0668940C9414060E94BC
:100FB0004406A8F39923C1F3AEF3DF93CF931F93B5
:100FC0000F93FF92C92FDD2788232AF02197660F00
:100FD000771F881FDAF720E030E040E85FEB9FE3FF
:100FE000883920F0803E38F021968F770E941305D3
:100FF000E0E9F0E004C00E941305EDEBF0E00E9490
:1010000066078B01BE01EC01FB2E6F5771097595C8
:10101000771F880B990B0E94B50528E132E741E361
:101020005FE30E947D06AF2D9801AE01FF900F9106
:101030001F91CF91DF910E942A050C942B06FA0193
:10104000DC01AA0FBB1F9B01AC01BF5728F422276C
:1010500033274427507820C0B75190F4AB2F002499
:10106000469537952795011CA395D2F3002071F082
:10107000220F331F441FB395DAF30ED00C941205E0
:1010800061307105A0E88A07B94630F49B01AC01D4
:101090006627772788279078309621F02083318340
:1010A0004283538308950E9467080C942B060E9484
:1010B000240658F00E941D0640F029F45F3F29F0F5
:1010C0000C94140651110C945F060C941A060E949D
:1010D0003C0668F39923B1F3552391F3951B550B07
:1010E000BB27AA2762177307840738F09F5F5F4FFB
:1010F000220F331F441FAA1FA9F335D00E2E3AF03A
:10110000E0E832D091505040E695001CCAF72BD051
:10111000FE2F29D0660F771F881FBB1F26173707A2
:101120004807AB07B0E809F0BB0B802DBF01FF27D4
:1011300093585F4F3AF09E3F510578F00C94140697
:101140000C945F065F3FE4F3983ED4F38695779561
:101150006795B795F7959F5FC9F7880F911D96958D
:10116000879597F90895E1E0660F771F881FBB1FE9
:10117000621773078407BA0720F0621B730B840B96
:10118000BA0BEE1F88F7E09508959F3F31F091501C
:1011900020F4879577956795B795880F911D96955B
:1011A000879597F90895A1E21A2EAA1BBB1BFD0192
:1011B0000DC0AA1FBB1FEE1FFF1FA217B307E40736
:1011C000F50720F0A21BB30BE40BF50B661F771F8E
:1011D000881F991F1A9469F760957095809590956E
:1011E0009B01AC01BD01CF010895EE0FFF1F0590DB
:0A11F000F491E02D0994F894FFCF6C
:1011FA0000000000B00110013D01FD016E014C012B
:10120A006001416E616C6F67203020494E3A2000C0
:10121A00204368616E6E656C2030203A20006E6152
:0E122A006E00696E66006F7666000D0A0000A9
:00000001FF
